:02000004080EE4
:01000000F00F
:0400040045060E0897
:1000080080B483B000AF7860074A7B681A60074BFA
:100018001B681A467B685A607B6818460C37BD46D1
:100028005DF8047B704700BF30080E0868000010B8
:1000380080B582B000AF786039607B6800221A60B2
:100048003968786800F012F87B6818460837BD46AA
:1000580080BD000080B400AF034B00221A6000BFCF
:10006800BD465DF8047B70476C00001090B585B004
:1000780000AF786039600023FB601B4B1B68002BC6
:1000880014D0194B1B68BB60BB68002B11D0FB68F0
:100098000433FB60BB681B68002B03D1BB687A681C
:1000A8001A6006E0BB681B68BB60EDE70E4A7B6818
:1000B80013603B68B3F1FF3F01D03B6800E0FB6889
:1000C8007A689360094B1868084B1B681B683833BB
:1000D8001C687B6899687B681A1D0423A04700BFC9
:1000E8001437BD4690BD00BF6C00001068000010BA
:1000F80080B582B000AF7860084611461A460346BC
:10010800FB700B46BB7013463B80174A7B681A602E
:10011800164B1B681A467B685A607B6803F114000B
:10012800FB7803F580723B881B0113441B011946B9
:10013800FFF77EFF7B6803F12000FB7803F58072F0
:100148003B881B0113441B0104331946FFF770FF5A
:100158007B68FA781A727B68BA785A727B68184694
:100168000837BD4680BD00BF24080E08680000108F
:1001780080B582B000AF78600B46FB707868F9787C
:1001880000230022FFF7B4FF064A7B681A607B68E9
:1001980000225A72786800F007F87B68184608371A
:1001A800BD4680BD18080E0890B585B002AF7860CE
:1001B8007B6858687B685B681B6810331C687B68C1
:1001C800197A0023009300230422A04700BF0C37AC
:1001D800BD4690BD80B586B000AF78607B68596831
:1001E8007B685B681B6814331B687A68127A07F1AE
:1001F8000C009847FB6818461837BD4680BD0000BC
:1002080080B582B000AF786039600B4A7B681A60AD
:100218000A4B1B681A467B681A617B6800225A6081
:10022800786800F022F83968786800F032F87B685E
:1002380018460837BD4680BDF8070E08680000104C
:1002480080B582B000AF78607B681A697B681B69EB
:100258001B6828331B681046984702467B68DB6892
:10026800D31A18460837BD4680BD80B582B000AFA6
:1002780078607B681A697B681B691B6828331B6870
:100288001046984702467B68DA6000BF0837BD46CB
:1002980080BD80B582B000AF786039607B681B682C
:1002A80004331B68786898473B68002B02D07B684A
:1002B8003A685A607B685B68002B14BF01230023EF
:1002C800DAB27B681A7200BF0837BD4680BD80B4B9
:1002D80083B000AF78607B6800221A7200BF0C37C9
:1002E800BD465DF8047B704780B582B000AF78608A
:1002F8007B681B7A002B17D07B681B681B687868A3
:10030800984702467B685B689A422CBF012300230A
:10031800DBB2002B08D07B681B6808331B68002100
:1003280078689847012300E0002318460837BD463F
:1003380080BD80B582B000AF786039607B681A698B
:100348007B681B691B682C331B6839681046984703
:1003580000BF0837BD4680BD80B582B000AF786069
:10036800064B1B681A467B685A60786800F008F8E4
:100378007B6818460837BD4680BD00BF680000107E
:1003880080B582B000AF78607B6800221A700C4A92
:100398000121786800F016F8094A0221786800F00F
:1003A80011F8074A0321786800F00CF8044A042180
:1003B800786800F007F800BF0837BD4680BD00BF69
:1003C80050070E080CB490B585B000AF78600B46A6
:1003D800FB70FB78002B12D0FB78042B0FD807F1A9
:1003E8002403FB607B6858687B685B681B68203364
:1003F8001C68FB78013BD9B2FB683A6AA04700BF8A
:100408001437BD46BDE8904002B0704780B582B051
:1004180000AF78607B681846FFF7F2FD0C4A7B68EE
:100428001A607B6808331846FFF796FF7B6810331D
:1004380000211846FFF79CFE7B683C3301211846D3
:10044800FFF796FE7B6818460837BD4680BD00BF9B
:10045800EC070E0880B582B000AF78600B46FB70E1
:10046800FB78002B18D17B680833194A01211846FC
:10047800FFF7A8FF7B680833164A02211846FFF7E2
:10048800A1FF7B680833144A03211846FFF79AFF37
:10049800786800F029F817E07B6808330F4A0121D3
:1004A8001846FFF78FFF7B6808330D4A022118466C
:1004B800FFF788FF7B6808330A4A03211846FFF7CD
:1004C80081FF786800F066F800BF0837BD4680BD38
:1004D80054070E0860070E0874070E0888070E08F0
:1004E80050070E0894070E0880B588B000AF7860F2
:1004F8007B680833254A04211846FFF763FF7B68A9
:1005080010331846FFF766FE0346002B14BF01237D
:100518000023DBB2002BEBD007F10C0300211846B7
:10052800FFF76EFE7B680833194A04211846FFF767
:1005380049FF07F10C0364211846FFF7FAFE7B68B0
:1005480010331846FFF746FE0346002B14BF01235D
:100558000023DBB2002B00D0F1E707F10C031846AB
:10056800FFF76EFE03461946786800F035F87B6899
:100578003C331846FFF72EFE0346002B0CBF012321
:100588000023DBB2002BB3D0F1E700BFB0070E08A1
:10059800C0070E0880B588B000AF786007F10C037B
:1005A80000211846FFF72CFE07F10C031846FFF749
:1005B80047FE03461946786800F00EF87B683C331E
:1005C8001846FFF707FE0346012B0CBF0123002343
:1005D800DBB2002BE8D0F1E780B582B000AF7860DD
:1005E80039607B6803F108003B68044A0421FFF77F
:1005F800E9FE00BF0837BD4680BD00BFD4070E081E
:1006080080B59CB000AF03463960FB710A4A3B686D
:100618001360FFF71FFD07F108031846FFF7F6FE02
:10062800FA7907F1080311461846FFF713FF00236C
:1006380018467037BD4680BD6800001080B584B08C
:1006480000AF03463960FB714FF0FF33FB60FB7965
:1006580039681846FFF7D4FFF860FB68184610376A
:10066800BD4680BD08B500F00DF808B5804700F01C
:100678000EF80000024B1868BFF35B8F704700BF8D
:100688000000001008B5FFF7F5FFFFF7EEFF08B50B
:10069800062000F02BF8012000F054F81F2938B587
:1006A80004460D4604D9162303604FF0FF3038BDC9
:1006B800426C12B152F821304BB9204600F030F8A4
:1006C8002A4601462046BDE8384000F017B8012BFD
:1006D8000AD0591C03D1162303600120E7E7002440
:1006E80042F82540284698470020E0E7024B01469B
:1006F8001868FFF7D3BF00BF0400001038B5074DD6
:1007080000230446084611462B6000F013F8431CEA
:1007180002D12B6803B1236038BD00BF7000001000
:1007280000F000B8024B58221A604FF0FF307047B3
:1007380070000010024B58221A604FF0FF307047CB
:1007480070000010FEE700BF0000000053746F70D7
:100758007075687200000000546173746520616EE2
:100768002053313A204D657373656E00546173747C
:100778006520616E2053323A20526573657400001B
:100788004C6175667A656974000000005461737481
:100798006520616E2053323A205A77697363686521
:1007A8006E7A6569740000005374617274626572D0
:1007B80065697421000000004D657373756E6720CC
:1007C8006CE4756674202E2E2E0000004C61756650
:1007D8007A6569743A202564206D73000000000072
:1007E800000000005D040E0800000000000000008A
:1007F80049020E0873020E089B020E08D7020E0863
:10080800F1020E083B030E08000000000000000083
:10081800DD010E0800000000000000006D060E0853
:0C08280000000000000000006D060E083B
:1008340097060E08080000100000000000000000E9
:1008440000000000000000000000000000000000A4
:100854000000000000000000000000000000000094
:100864000000000000000000000000000000000084
:100874000000000000000000000000000000000074
:100884000000000000000000000000000000000064
:0808940000000000000000005C
:04000005080E0008D9
:00000001FF
